:1000000001308A00B32900000A108A100A11820701
:1000100028340C34013406348C1BB31B36008C1B83
:10002000B61B33002C3084008313000803192628E4
:100030000130F800F701F70B1B28F80B1A284A309B
:10004000F700F70B21282428800B18280800330E0E
:10005000F039F7000F30060577048600000006141B
:100060003128061008000608F700060E0F39F800C0
:10007000080086100F3083160605F03886008312BC
:10008000061500000614000033207808B30006109F
:1000900000000614000033207808B20006100F306C
:1000A0008316060586008312330EF700F030F7053D
:1000B00077083204F8007808B200B21B3A28301CE6
:1000C0008610301886140000061100000610310E4C
:1000D000B2000F30B2053208B300272031080F39C3
:1000E000B200B300272008000F30831606058600F3
:1000F00006108610061183128610061106100F30A6
:10010000AC0012200130A8002808033C031C9028F2
:100110000330B30027200530AC001220A80A842841
:100120000230B3002720A8012808033C031CA128A3
:1001300028080420A900B0012908B1003920A80A24
:1001400094288A110A12D7292B080C3A0319AF28D0
:10015000063A0319B728023A0319CD28D228B0016C
:100160000130B10039200230AC001220D728013014
:10017000AC000230AD002D0BBE28C1284030AE00CF
:10018000C228AE0101302C02AE072E088038AF0025
:10019000B0012F08B1003920D728B0011030B100CC
:1001A0003920D7280130B0002B08B10039200800D1
:1001B0000B08A8008B13831603178C170C14000070
:1001C000000083120313A81B8B1703170C087F3939
:1001D00003192C290313A80003170D080313A90002
:1001E00003170F080313AA002808AB00A42029084E
:1001F00003178D0003132A0803178F0003130B083E
:10020000AB008B13831603178C170C14000000002F
:1002100083120313AB1B8B1703170C0D0E0D7F39C5
:1002200003192C290313A80003170D080313A900B1
:1002300003170F080313AA002808AB00A4202908FD
:1002400003178D0003132A0803178F008D0A031963
:100250008F0A0313D828031703130800B0010408FA
:10026000AF003010831B3014290EF038AB00AB0701
:10027000E23EAC00323EAE0029080F39AC07AC07B5
:10028000AE07E93EAD00AD07AD07280E0F39AD074B
:10029000AE07AD0DAE0DAE09AE0D28080F39AE0795
:1002A000AB0D0730AA000A30AE07AD03031C54297A
:1002B000AD07AC03031C5829AC07AB03031C5C2936
:1002C000AB07AA03031C60292A308400831307307C
:1002D0002F052F1384072E30040203192F1700084F
:1002E000F700031D7B292F1B7B292F1A9829AF1993
:1002F0007B2920307E29AF152F123030F707A90156
:100300000408A8002910831B29147708B1002108CC
:10031000840083132218831731088000840A800127
:10032000A10A0319A20A2808840083132918831735
:10033000840A2F1F6B29080080080319B229A9011C
:100340000408A8002910831B291400080C1EA629E4
:10035000990028088400831329188317840A031935
:10036000850A9C29080003081F3983001930831669
:100370009900A6309800903083129800FF30A000BA
:10038000A201A10183161F149F141F159F1107308E
:100390009C0083131C308312A700D030A6000030CD
:1003A00083168600433087008312A000742820142F
:1003B00020088316870083120718012A0A30AC0030
:1003C000122020142008831687008312071CE129BD
:1003D0000C3003178D0000308F000313D8201C3021
:1003E000A700D030A600A2012330A1000130840074
:1003F0002708A9002608A8002E2123308400831393
:100400009C21A014200883168700831287182B2AAA
:100410000A30AC001220A014200883168700831233
:10042000871C0B2A0F3003178D0000308F00031339
:10043000D8201D30A700F930A600A2012330A1006A
:10044000013084002708A9002608A8002E212330A7
:0A045000840083139C21D729630068
:02400E00721F1F
:00000001FF
;PIC16F876A
;CRC=E0C5  CREATED="16-jan-15 13:32"
