:1000000002308A00052A0000FF00030E8301A100D0
:100010007F08A0000A08A7008A01A00E0408A20019
:100020007708A3007808A4007908A5007A08A6003C
:10003000831383128C308400801E20288C1A312870
:10004000220884002308F7002408F8002508F90096
:100050002608FA0027088A00210E8300FF0E7F0E73
:100060000900B8013808033C031C4228393038071E
:10007000840083138C1E3A281A0880008C1A3628B4
:10008000B80A3228C1013930C000C801C6010A309F
:10009000C700C501C401C301C20140084104031DDA
:1000A0005628F701F801F901FA01C1294808C80AE0
:1000B000400784008313411883170008C9004908CA
:1000C0002D3C031D6F280130C6004808C80A4007B0
:1000D00084008313411883170008C9007C2849084D
:1000E0002B3C031D7C284808C80A40078400831362
:1000F000411883170008C90049082F3C0318A82994
:100100004908393C031CA8294908303C031DA8288C
:100110004808400784008313411883170008783C7F
:1001200003199C284808400784008313411883174B
:100130000008583C031DA8281030C700C80A48080A
:10014000C80A400784008313411883170008C900B8
:1001500047080A3C031DFF2849082F3C0318FE28C6
:100160004908393C031CFE280310420DCB00430D07
:10017000CC00440DCD00450DCE00420DF700430DDF
:10018000F800440DF900450DFA00F70DF80DF90DD2
:10019000FA0DF70DF80DF90DFA0DF830F7054B08CB
:1001A000F7074C0803184C0FF8074D0803184D0FBC
:1001B000F9074E0803184E0FFA077A08C5007908A8
:1001C000C4007808C3007708C20030304902C20773
:1001D000003003180130C307003003180130C40792
:1001E000003003180130C5074808C80A40078400DA
:1001F0008313411883170008C900AC28A8294708B1
:10020000103C031DA8294908603C03180E29490821
:100210007A3C031C0E294908DF390F294908C90017
:1002200049082F3C031818294908393C031820298C
:100230004908403C0318A8294908463C031CA82942
:1002400049082F3C03185D294908393C031C5D29E6
:10025000420DCB00430DCC00440DCD00450DCE002A
:10026000CB0DCC0DCD0DCE0DCB0DCC0DCD0DCE0DC2
:10027000CB0DCC0DCD0DCE0DF030CB05303049027D
:100280004B07F7004C08F800003003180130F8075E
:100290004D08F900003003180130F9074E08FA0044
:1002A000003003180130FA077A08C5007908C40045
:1002B0007808C3007708C2009229420DCB00430D95
:1002C000CC00440DCD00450DCE00CB0DCC0DCD0D99
:1002D000CE0DCB0DCC0DCD0DCE0DCB0DCC0DCD0D52
:1002E000CE0DF030CB05413049020A3E4B07F700F6
:1002F0004C08F800003003180130F8074D08F900E9
:10030000003003180130F9074E08FA0000300318D6
:100310000130FA077A08C5007908C4007808C300DC
:100320007708C2004808C80A4007840083134118B0
:1003300083170008C900603C0318A52949087A3CC6
:10034000031CA5294908DF39A6294908C900102935
:1003500047080A3C031DB929460BB929C209C3093C
:10036000C409C509C20A0319C30A0319C40A031937
:10037000C50A4208F7004308F8004408F900450898
:10038000FA007A08BF007908BE007808BD00770837
:10039000BC003C08D03C031DDB293D081C3C031D70
:1003A000DB29BE08031DDB29BF08031DDB298316DB
:1003B0000613831206173C08F93C031DED293D087E
:1003C0001D3C031DED29BE08031DED29BF08031DBB
:1003D000ED2983160613831206138C128A11202826
:1003E00037308400831300080319042A0130F80011
:1003F000F701F70BF929F80BF8294A30F700F70B4A
:10040000FF29022A800BF629080003081F39830000
:10041000193083169900A630980090308312980006
:1004200007309F008313A801A901AE010230831693
:1004300086008312860183168C16C03083128B04CB
:10044000AE08031D312A83168612831286160230E7
:10045000B600FA30B700F021B60B292A0130AE0001
:100460003D2A83168612831286120230B600FA30B5
:0E047000B700F021B60B372AAE01202A630038
:02400E00621F2F
:00000001FF
;PIC16F628A
;CRC=2282  CREATED="16-jan-15 13:34"
