:1000000001308A005B2900000A108A100A11820759
:1000100028340C340134063429308400831300085A
:10002000031920280130F800F701F70B1528F80B09
:1000300014284A30F700F70B1B281E28800B1228C3
:100040000800300EF039F7000F30060577048600FF
:10005000000006142B28061008000608F700060EFC
:100060000F39F800080086100F3083160605F038A7
:100070008600831206150000061400002D20780863
:10008000B00006100000061400002D207808AF0014
:1000900006100F308316060586008312300EF70017
:1000A000F030F70577082F04F8007808AF00AF1B91
:1000B00034282D1C86102D1886140000061100000F
:1000C00006102E0EAF000F30AF052F08B000212014
:1000D0002E080F39AF00B000212008000F30831622
:1000E000060586000610861006118312861006117A
:1000F00006100F30A9000C200130A8002808033C8E
:10010000031C8A280330B00021200530A9000C20F0
:10011000A80A7E280230B0002120A8012808033C4C
:10012000031C9B2828080420A900AD012908AE0063
:100130003320A80A8E288A110A127929B0010408EE
:10014000AF003010831B3014290EF038AB00AB0722
:10015000E23EAC00323EAE0029080F39AC07AC07D6
:10016000AE07E93EAD00AD07AD07280E0F39AD076C
:10017000AE07AD0DAE0DAE09AE0D28080F39AE07B6
:10018000AB0D0730AA000A30AE07AD03031CC4282C
:10019000AD07AC03031CC828AC07AB03031CCC2879
:1001A000AB07AA03031CD0282A308400831307302E
:1001B0002F052F1384072E30040203192F17000870
:1001C000F700031DEB282F1BEB282F1A0829AF1966
:1001D000EB282030EE28AF152F123030F707A90199
:1001E0000408A8002910831B29147708B1002108EE
:1001F000840083132218831731088000840A800149
:10020000A10A0319A20A2808840083132918831756
:10021000840A2F1FDB288A110A12872980080319F4
:100220002429A9010408A8002910831B2914000807
:100230000C1E182999002808840083132918831795
:10024000840A0319850A0E298A110A128B292808A3
:100250000C3A03193229063A03193A29023A0319CA
:1002600050295529AD010130AE0033200230A900DC
:100270000C205A290130A9000230AA002A0B41297A
:1002800044294030AB004529AB0101302902AB07BE
:100290002B088038AC00AD012C08AE0033205A2961
:1002A000AD011030AE0033205A290130AD002808CE
:1002B000AE003320080003081F398300193083166D
:1002C0009900A6309800903083129800FF30A0006B
:1002D000A201A10183161F149F141F159F1107303F
:1002E0009C00831300308600433087008312A000F7
:1002F0006E281C30A700D030A600A2012330A10038
:10030000013084002708A9002608A8009E28233071
:10031000840083130E29201420088316870083127B
:100320000718A9290A30A9000C20201420088316D8
:1003300087008312071C95290C30A8002721313033
:10034000A80027212030A800272131300C1EA62923
:100350009900A01420088316870083128718C729E4
:100360000A30A9000C20A0142008831687008312ED
:10037000871CB3290C30A80027213230A800272180
:100380002030A800272132300C1EC42999008B2967
:02039000630008
:02400E00721F1F
:00000001FF
;PIC16F876A
;CRC=31A6  CREATED="16-jan-15 09:05"
