:1000000000308A005D280000FF00030E8301A1007C
:100010007F08A0000A08A7008A01A00E0408A20019
:100020007708A3007808A4007908A5007A08A6003C
:10003000831383128C308400801E20288C1A312870
:10004000220884002308F7002408F8002508F90096
:100050002608FA0027088A00210E8300FF0E7F0E73
:1000600009008C1E31281A08AB002B08313C031DF7
:100070003D2883160613831206172B08323C031DF6
:10008000452883168613831286178C128A1120281E
:100090002A3084008313000803195C280130F8001B
:1000A000F701F70B5128F80B50284A30F700F70BEF
:1000B00057285A28800B4E28080003081F39830050
:1000C000193083169900A63098009030831298005A
:1000D00007309F008313A801023083168600831225
:1000E000860183168C16C03083128B04A808031D6A
:1000F000872883168612831286160230A900FA30EA
:10010000AA004820A90B7F280130A8009328831655
:100110008612831286120230A900FA30AA00482003
:0A012000A90B8D28A80176286300C2
:02400E00621F2F
:00000001FF
;PIC16F628A
;CRC=9716  CREATED="16-jan-15 09:29"
