:1000000002308A00812A0000FF00030E8301A10054
:100010000A08A0008A010408A2007708A300780853
:10002000A4007908A5007A08A60003170D08031399
:10003000A70003170F080313A80003170C080313E6
:10004000A90003170E080313AA00831383128D302F
:100050008400001C2D280D184E2822088400230837
:10006000F7002408F8002508F9002608FA002708F8
:1000700003178D000313280803178F0003132908A3
:1000800003178C0003132A0803178E00031320089C
:100090008A00210E8300FF0E7F0E09008A110A12CA
:1000A00000290F3083160605F038860083120615E6
:1000B0000000061400000608F700060E0F39F800CD
:1000C0007808D10006100000061466286728000092
:1000D0000608F700060E0F39F8007808D000061061
:1000E0000F308316060586008312510EF700F0309C
:1000F000F70577085004F8000800510EF039F700B2
:100100000F30060577048600000006140230F70061
:10011000F70B88288B2800000610080083160610AD
:10012000861006118312861051207808D000D01B4B
:1001300094284E1C86104E188614000006110000EC
:1001400006104F0ED0000F30D0055008D1007D2092
:100150004F080F39D000D1007D2008004B0BB1288B
:10016000B4284030CC00B528CC0101304A02CC077D
:100170004C088038CD00CE014D08CF008E200800FD
:100180004A308400831300080319D3280630F8008E
:10019000F701F70BC928F80BC8287B30F700F70BDD
:1001A000CF28800BC62808004908073A0319E2281F
:1001B0000B3A0319E728063A0319EF28023A031904
:1001C000F528FA280130CA00CB00AE20FF28CE0166
:1001D0000130CF008E200230CA00C020FF2801303D
:1001E000CA000230CB00AE20FF28CE011030CF0075
:1001F0008E20FF280130CE004908CF008E20080055
:100200001608AD001508AC001C08AF001B08AE00B6
:100210002C082E02B0002F08B1002D08031C2D0F52
:10022000B1023108BF003008BE00C1010530C00076
:10023000F801F901F701FA014108031D22294008DC
:1002400003193C291030C2000310BE0DBF0DF70D7D
:10025000FA0D41087A02031D2F2940087702031C7A
:1002600038294008F702031CFA034108FA02031474
:10027000F80DF90DC20B24297908BF007808BE00DB
:10028000143003178D0002308F0003100E3003135B
:10029000C0000B08C1008B13831603178C170C14B6
:1002A0000000000083120313C11B8B170318802961
:1002B00003170C087F390313C10003170D0803133C
:1002C000C20003170F080313C3004108C900D4205C
:1002D000420803178D000313430803178F0003130D
:1002E0000B08C4008B13831603178C170C14000023
:1002F000000083120313C41B8B17C00B80299F2996
:1003000003170C0D0E0D7F390313C10003170D08E1
:100310000313C20003170F080313C3004108C900E9
:10032000D420420803178D000313430803178F00DE
:100330008D0A03198F0A03100313C00B49291030CB
:1003400084003F08C1003E08C000C8010408C7007F
:100350004810831B4814410EF038C300C307E23E27
:10036000C400323EC60041080F39C407C407C6079F
:10037000E93EC500C507C507400E0F39C507C607CA
:10038000C50DC60DC609C60D40080F39C607C30DF9
:100390000730C2000A30C607C503031CCB29C507B6
:1003A000C403031CCF29C407C303031CD329C307F9
:1003B000C203031CD729423084008313073047054A
:1003C0004713840746300402031947170008F70053
:1003D000031DF229471BF229471A042AC719F229DB
:1003E0002030F529C71547123030F707C10104083E
:1003F000C0004110831B41147708C900D420400875
:100400008400831341188317840A471FE229203090
:10041000C900D4207530C900D4207330C900D4205D
:100420000D108A110A122D288C29E13670366510BC
:10043000D434ED320A1025367510F5390000283015
:10044000B4000C30B5000130B6000630B70006101D
:10045000861006110F3083160605860006108610DA
:1004600006118312AB018B1BAB178B130F30CA0025
:10047000C020AB1B8B170130B3003308033C031CB7
:10048000552AAB018B1BAB178B130330D1007D209A
:10049000AB1B8B17AB018B1BAB178B130530CA0043
:1004A000C020AB1B8B17B30A3D2AAB018B1BAB17CC
:1004B0008B130230D1007D20AB1B8B17AB018B1B44
:1004C000AB178B130530CA00C020AB1B8B17B301D1
:1004D0003308033C031C7E2A343033078400831323
:1004E0000008B800AB018B1BAB178B13CE0138088B
:1004F000CF008E20AB1B8B17B30A682A8A110A1211
:10050000932A03081F398300FF30B20083161F149B
:100510009F141F159F11831300308600063087003B
:100520008312B2001F2A3215320883168700831205
:10053000970105309700B2143208831687008312A2
:100540009D0104309D00853090008E018F018E0149
:0E05500083160D14C03083128B04AD2A630095
:02400E00723FFF
:00000001FF
;PIC16F877
;CRC=DA65  CREATED="26-jan-16 16:27"
