:10000000B9EF06F02450100803E194908B8002D0E1
:10001000929A898A96928D92956A25C08CFF9694C1
:100020008D84270E006E002EFED700D096948D94FE
:1000300094908B90929A899A000C126A1250070839
:1000400038E396908D90100E246E400E256EDADF08
:10005000050E246E400E256ED5DF1250B809146EC1
:10006000100E246E14C025F0CDDF1250B809146EA6
:10007000050E246E14C025F0C5DF96908D80136A9E
:1000800013503F0814E31150FF0DF3CF14F0100E7E
:10009000246E14C025F0B6DF1150FF0DF3CF14F01D
:1000A000050E246E14C025F0ADDF132AE9D7122AFD
:1000B000C5D79CEF00F093968A8696948D94949081
:1000C0008B90929A899A96908D90100E246EC00E05
:1000D000256E98DF050E246EC00E256E93DF100E80
:1000E000246E400E256E8EDF050E246E400E256EAA
:1000F00089DF100E246EB80E256E84DF050E246E87
:10010000B80E256E7FDF102C0BD0100E246E3F0E24
:10011000256E78DF050E246E3F0E256E73DF0AD044
:10012000100E246E3E0E256E6DDF050E246E3E0E03
:10013000256E68DF116A81D7C7EF06F0006A016A91
:100140001F50D89020B000260032013220B2002685
:100150000032013220B400260032013220B60026DF
:100160000032013220B800260032013220BA0026C7
:100170000032013220BC00260032013220BE0026AF
:1001800000320132000C2350100803E194908B8060
:1001900002D0929A898AFF0E956E96928D829694DD
:1001A0008D84270E006E002EFED700D096948D947D
:1001B000270E006E002EFED700D096948D84270E59
:1001C000006E002EFED700D0FF0E956E83CF24F078
:1001D00096948D9494908B90929A899A24C001F071
:1001E00017EF01F0100E226E1E503F0804E2400E81
:1001F0001E5E050E226E96908D901E9E1E8C22C055
:1002000024F01EC025F0FEDE1F30006E00320032EA
:100210001F0E00160050BF0BB809236E22C024F039
:10022000256EF0DE96908D8022C023F0ACD701C001
:1002300021F0202C0FD01F50070B236E010E006EF3
:100240002350016E04E0D8900036012EFCD70050F8
:1002500021120FD01F50070B236E010E006E23508A
:10026000016E04E0D8900036012EFCD70050FF0A42
:10027000211696908D9022C024F01EC025F0C2DE7B
:1002800096908D8022C024F021C025F0BBDE000CAA
:100290001050125C1E6E1E501EAE03D0000ED88091
:1002A0001E54196E1150135C1E6E1E501EAE03D0EC
:1002B000000ED8801E541A6E10C015F011C016F032
:1002C0001050125C03E2FF0E176E02D0010E176E83
:1002D0001150135C03E2FF0E186E02D0010E186E6F
:1002E0001A50800A006E1950800A005C01E047E253
:1002F000020E1F6E1AC020F021DF1950015C036A44
:10030000E8BE03061B6E03C01CF01D6A19BE36D082
:100310001D50195C33E315C01EF016C01FF014C049
:1003200020F060DF1CBE01D00FD0020E1F6E1AC07D
:1003300020F004DF0150036AE8BE03061B260350C9
:100340001C221750152618D0020E1F6E1AC020F05E
:10035000F5DE01C01EF0020E1F6E19C020F0EEDEA9
:1003600001501E5C036AE8BE03061B2603501C22D4
:1003700017501526185016261D2AC8D746D0020E2B
:100380001F6E19C020F0DADE1A50015C036AE8BE65
:1003900003061B6E03C01CF01D6A1ABE36D01D502A
:1003A0001A5C33E315C01EF016C01FF014C020F015
:1003B00019DF1CBE01D00FD0020E1F6E19C020F035
:1003C000BDDE0150036AE8BE03061B2603501C2253
:1003D0001850162618D0020E1F6E19C020F0AEDE7F
:1003E00001C01EF0020E1F6E1AC020F0A7DE0150E1
:1003F0001E5C036AE8BE03061B2603501C2217502E
:100400001526185016261D2AC8D7000C10501202A7
:10041000F3CF01F0F4CF00F01302F3500026115097
:100420001202F3500020026EE8EF06F08E0E006E0E
:100430004FC001F04EC002F0036A015209E102C050
:1004400001F0026A080E005E015202E1006A08D063
:10045000D89001BE04D0023601360006F9D7019EBD
:10046000000C4E50D8B471D0006E5250D8B46DD03C
:10047000002604E3810E002668E204D07F0E005EB1
:1004800064E363E04FC056F05350561A4F8E538EBC
:1004900051505502F4CF58F050505402F4CF03F0AD
:1004A000F3CF57F05502F3505826F4505722000E60
:1004B000032251505402F3505826F4505722000E94
:1004C000026A032202224F505502F3505726F4507D
:1004D0000322000E02224F505402F3500326F45020
:1004E0000222000E016A012251505302F350572696
:1004F000F4500322000E0222012250505302F35006
:100500000326F4500222000E01224F505302F350F2
:100510000226F4500122002A01BE05D057360336C8
:10052000023601360006000E57AE0AD0032A022218
:100530000122015005E1025003E1035001E1002ACC
:1005400056BE018E56AE019E04D0006A016A026A50
:10055000036A000C800ED8B2531A586A596A4FC009
:1005600057F05350571A4E50D8B4DCD0566E006E28
:100570005250D8B4E0D0565ED8B481D03DE353C0D9
:100580005CF05C8E54C05BF055C05AF0596AD8904C
:100590005C325B325A325932562EF8D757AE03D0FE
:1005A0005880DDD0589056905888EA6A510EE96E0E
:1005B000E9D0589857BE0AD056A013D05C325B32AF
:1005C0005A325932002AD8B4C5D00BD05CBE0CD0F8
:1005D000D89059365A365B365C360006D8B4BAD055
:1005E000F5D7588C6BD0589C4FC057F04FAE02D007
:1005F0005C8EA9D05C9EA7D052C056F052C000F0CD
:100600004E50565E4FC05CF05C8E50C05BF051C0E7
:100610005AF0596AD8905C325B325A325932562EAF
:10062000F8D757AE03D058829AD058925690588A2D
:10063000EA6A550EE96EA6D0589A57BE0AD056A05F
:1006400013D05C325B325A325932002AD8B482D08D
:100650000BD05CBE0CD0D89059365A365B365C361F
:100660000006D8B477D0F5D7588E28D0589E53C0FE
:1006700057F053AE02D05C8E66D05C9E64D053C0FF
:100680005CF05C8E54C05BF055C05AF057AE04D09D
:100690005C9E588464D05894596A5690EA6A510E08
:1006A000E96E70D057BE1CD04FC057F056A006D090
:1006B0005C325B325A325932002A4CE059AE0BD0D0
:1006C0005A2A09E15B2A07E15C2A05E15C325B32C8
:1006D0005A32002A3FE058BC86D758BEC7D71CD034
:1006E000800E5C1A5CAE04D03AD053C057F00AD0EA
:1006F0004FC057F05C5206E15B5204E15A5202E1EE
:10070000006A21D05CBE08D0D89059365A365B3684
:100710005C36002EF7D71ED057AE02D05C8E13D0B9
:100720005C9E11D052C000F053C05CF054C05BF02E
:1007300055C05AF008D04EC000F04FC05CF050C019
:100740005BF051C05AF05CC001F05BC002F05AC0CF
:1007500003F034D0006A016A026A036A2FD0596A32
:100760005A1E5B1E5C1E591E592A05E15A2A03E1D6
:100770005B2A01E15C2A58B015D758B256D758B455
:100780008AD7B3D7EF505A2605E35B2A03E15C2AE8
:10079000D8B45680ED52EF505B2603E35C2AD8B400
:1007A0005680ED52EF50EFBE01D0800A5C26D8B0E3
:1007B000568058B8FED658BA3FD774D7000C4BC0F5
:1007C00052F04F50521A52AE05D0D894D8904BBE2A
:1007D000D8802FD04BC052F04EC053F04A50535ED9
:1007E00006E052AE26D0D850010AD86E22D04FC0B3
:1007F00053F04B50535E06E052AE1BD0D850010A66
:10080000D86E17D050C053F04C50535E06E052AE35
:1008100010D0D850010AD86E0CD051C053F04D50B2
:10082000535E06E052AE05D0D850010AD86E01D012
:10083000D89024EF05F04A50D8B4A5D0566E4E504B
:10084000D8B4A1D0565E05E37F0E5626D8B09BD013
:1008500006D0810E565ED8A096D0D8B494D056C09B
:1008600000F0016A026A036A556A4BC054F0548E64
:100870004CC053F04DC052F0190E566E5150525E9E
:100880000DE2010E535E0AE2545E08E2555E06E296
:10089000552A542A532A5150522628D05050535E7C
:1008A00012E2010E545E0FE2555E0DE2552A542A03
:1008B000505053265150522619E3532A17E1542A17
:1008C00015E1552A13D04F508009545E0EE2010EF7
:1008D000555E0BE2552A4F5080095426505053263E
:1008E000E9E3542AE7E1552AE5D70380562E01D0E3
:1008F0000BD0D8905236533654365536D8900336EE
:10090000023601365736BAD757A006D0D8900132F2
:1009100002320332573202D0000635E057BE1ED0F5
:10092000D89052365336543655365150525E07E2FF
:10093000010E535E04E2545E02E2555E1AE350502B
:10094000535E05E2010E545E02E2555E12E34F5023
:100950008009545E03E2010E555E0BE3032A09E1B0
:10096000022A07E1012A05E1002A0DE001320232E4
:1009700003324BC056F04F50561A56AE02D0018E7D
:1009800006D0019E04D0006A016A026A036A000C64
:100990008E0E006E4A50005E4BC002F04CC001F05B
:1009A000028E005209E0D890025202E1015204E0A6
:1009B00002320132002EF7D74BAE05D0011E021EC7
:1009C000012AD8B4022A000C2B6A2A6A296A7F0EEF
:1009D000286E7E0E326E800E336E346A356A7A0E61
:1009E000366E2A0E376EAA0E386EAB0E396E750E45
:1009F0003A6EB60E3B6E0B0E3C6E610E3D6E6F0E88
:100A00003E6E500E3F6E0D0E406E010E416E690E31
:100A1000426E930E436EF20E446E7E0E456E620E73
:100A2000466E0F0E476E760E486EAE0E496E1FC0B4
:100A30004DF01EC04CF01DC04BF01CC04AF0516A76
:100A4000506A4F6A4E6ABBD603E31D50800A1D6E82
:100A50001FC04DF01EC04CF01DC04BF01CC04AF032
:100A6000DB0E516E0F0E506E490E4F6E7F0E4E6EA6
:100A7000E2DE03C04DF002C04CF001C04BF000C0FC
:100A80004AF086DF01C02CF01FC04DF01EC04CF0B4
:100A90001DC04BF01CC04AF0DB0E516E0F0E506EA5
:100AA000490E4F6E7F0E4E6EC6DE00C04AF001C08A
:100AB0004BF002C04CF003C04DF04F6A2CC04EF01A
:100AC000B5DCD8824DC051F04CC050F04BC04FF057
:100AD0004AC04EF003C055F002C054F001C053F0BC
:100AE00000C052F037DD03C031F002C030F001C069
:100AF0002FF000C02EF0030E2C162C5203E02C50C9
:100B000002081AE131C051F030C050F02FC04FF050
:100B10002EC04EF0DB0E556E0F0E546E490E536E06
:100B20007F0E526E9EDC03C027F002C026F001C08B
:100B300025F000C024F063D02C2C31D0D882516A2B
:100B4000506A4F6A7F0E4E6E31C055F030C054F07F
:100B50002FC053F02EC052F0FDDC00C04AF001C09F
:100B60004BF002C04CF003C04DF003C051F002C086
:100B700050F001C04FF000C04EF0DB0E556E0F0E6E
:100B8000546E490E536E7F0E526E6BDC03C027F01D
:100B900002C026F001C025F000C024F030D0D88279
:100BA00031C051F030C050F02FC04FF02EC04EF089
:100BB000556A546A536A7F0E526ECCDC00C04AF00C
:100BC00001C04BF002C04CF003C04DF003C051F027
:100BD00002C050F001C04FF000C04EF0DB0E556E69
:100BE0000F0E546E490E536E7F0E526E3ADC03C0E8
:100BF00027F002C026F001C025F000C024F0236ACF
:100C0000226A216A7F0E206E27C051F026C050F064
:100C100025C04FF024C04EF027C055F026C054F038
:100C200025C053F024C052F01CDC03C027F002C0E2
:100C300026F001C025F000C024F02D6A2D500508D3
:100C400061E32BC051F02AC050F029C04FF028C0FA
:100C50004EF027C055F026C054F025C053F024C0F4
:100C600052F031EC02F003C02BF002C02AF001C0B8
:100C700029F000C028F02D50040DF350036A320F04
:100C8000E96E000E0320EA6EEFCF4AF0ECCF4BF096
:100C9000ECCF4CF0ECCF4DF04DC051F04CC050F0CB
:100CA0004BC04FF04AC04EF02BC055F02AC054F054
:100CB00029C053F028C052F031EC02F0EACF4BF0DB
:100CC000E9CF4AF0D89223C051F022C050F021C0A1
:100CD0004FF020C04EF003C055F002C054F001C0E8
:100CE00053F000C052F036DC4BC0EAFF4AC0E9FFC7
:100CF00003C023F002C022F001C021F000C020F0A8
:100D00002D2A9CD72C50020802E02C2C03D0215015
:100D1000800A216E20C000F021C001F022C002F044
:100D200023C003F0B7EF06F0D88217C051F016C009
:100D300050F015C04FF014C04EF0DB0E556E0F0E84
:100D4000546E490E536E7F0E526E04DC00C018F0D4
:100D500001C019F002C01AF003C01BF003C01FF05D
:100D600002C01EF001C01DF000C01CF02DD624EF03
:100D700007F0F86AD09EEA6AE96AC150C00B0F0911
:100D8000C16E070EB46E010E106E5BEF00F0106ABC
:100D90001F0E116E7F0E126E1F0E136E010E146E5B
:100DA00048EC01F03F0E106E116A126E136E010EC8
:100DB000146E48EC01F0010E056E076A066A010E1A
:100DC000116E680E106E136A05C012F006EF02F085
:100DD00002C003F00750025CD8A0C6D004E1015065
:100DE000065CD8B0C1D007C04FF006C04EF016EC7C
:100DF00002F0350E516EFA0E506E0E0E4F6E790ED9
:100E00004E6E03C055F002C054F001C053F000C054
:100E100052F031EC02F003C00BF002C00AF001C046
:100E200009F000C008F008C010F00950800A116EE7
:100E30000AC012F00BC013F00BC017F00AC016F076
:100E4000156E08C014F070D7516A506A4F6A840E4C
:100E50004E6E03C055F002C054F001C053F000C004
:100E600052F031EC02F0EACF11F0E9CF10F0D89255
:100E7000516A506A7C0E4F6E830E4E6E03C055F061
:100E800002C054F001C053F000C052F0AAEC02F0CE
:100E900011C0EAFF10C0E9FF03C00FF002C00EF05E
:100EA00001C00DF000C00CF007C04FF006C04EF0BE
:100EB00016EC02F08F0E516EC20E506E350E4F6E54
:100EC0007D0E4E6E03C055F002C054F001C053F0C9
:100ED00000C052F031EC02F000C010F001C011F07F
:100EE00002C012F003C013F04F6A05C04EF016ECBA
:100EF00002F013C04DF012C04CF011C04BF010C006
:100F00004AF003C051F002C050F001C04FF000C0E1
:100F10004EF091DC03C00BF002C00AF001C009F0F2
:100F200000C008F00BC04DF00AC04CF009C04BF0F7
:100F300008C04AF02DDD01C010F00FC04DF00EC00A
:100F40004CF00DC04BF00CC04AF022DD01C011F096
:100F500010C01EF001C01FF0010E206EF2EC00F078
:0C0F6000062AD8B4072A2BD7FFD70300BD
:020000040030CA
:0E00000024CE3E1E008581000FC00FE00F4091
:00000001FF
;PIC18F4550
;CRC=570B  CREATED="14-nov-13 08:40"
