:1000000002308A001D2A0000FF00030E8301A100B8
:100010000A08A0008A010408A2007708A300780853
:10002000A4007908A5007A08A600831383128C30F7
:100030008400001C1D280C182E2822088400230888
:10004000F7002408F8002508F9002608FA0020081F
:100050008A00210E8300FF0E7F0E09008A110A120A
:100060003B290A108A100A11820728340C34013403
:10007000063486100F3083160605F038860083128A
:1000800006150000061400000608F700060E0F39DA
:10009000F8007808D00006100000061400000608DA
:1000A000F700060E0F39F8007808CF0006100F3061
:1000B0008316060586008312500EF700F030F70510
:1000C00077084F04F8007808CF00CF1B3A284D1C62
:1000D00086104D18861400000611000006104E0E02
:1000E000CF000F30CF054F08D000500EF039F70089
:1000F0000F30060577048600000006147F280610DE
:100100004E080F39CF004F08D000500EF039F700DD
:100110000F30060577048600000006148F280610AD
:10012000080048080C3A03199C28063A0319B62817
:10013000023A0319CC28D128CD010130CE00392054
:100140000230C90049308400831300080319B52820
:100150000130F800F701F70BAB28F80BAA285B3049
:10016000F700F70BB128800BA828D7280130C90069
:100170000230CA004A0BBD28C0284030CB00C1283D
:10018000CB0101304902CB074B088038CC00CD01B0
:100190004C08CE003920D728CD011030CE003920B0
:1001A000D7280130CD004808CE003920D7280800D4
:1001B000C7010408C6004710831B4714400EF038DF
:1001C000C200C207E23EC300323EC50040080F39FC
:1001D000C307C307C507E93EC400C407C4073F0EF1
:1001E0000F39C407C507C40DC50DC509C50D3F08A6
:1001F0000F39C507C20D0730C1000A30C507C40357
:10020000031CFE28C407C303031C0229C307C2033F
:10021000031C0629C207C103031C0A2941308400BC
:10022000831307304605461384074530040203193B
:1002300046170008F700031D2529461B2529461AE5
:100240003729C619252920302829C61546123030ED
:10025000F707C0010408BF004010831B4014770853
:10026000C80091203F088400831340188317840A34
:10027000461F15290800AA0A2A08023C031D512915
:10028000AA01A80A0319A90ACD01C030CE0039205D
:10029000103084002908C0002808BF00D8208F0132
:1002A0008E010C108A110A121D288C216F37F43030
:1002B000E7326D1D00000F3083160605860006101C
:1002C0008610061183128610061106100F30C90021
:1002D000493084008313000803197B290130F8009A
:1002E000F701F70B7129F80B70295B30F700F70B5A
:1002F0007729800B6E290130AC002C08033C031CCD
:10030000A5290330D000500EF039F7000F30060554
:1003100077048600000006148D2906100530C900F8
:1003200049308400831300080319A3290130F80021
:10033000F701F70B9929F80B98295B30F700F70BB9
:100340009F29800B9629AC0A7D290230D000500EDF
:10035000F039F7000F300605770486000000061418
:10036000B1290610AC012C08033C031CC6292C083B
:100370003120AD00A7018B1BA7178B13CD012D08D2
:10038000CE003920A71B8B17AC0AB3298A110A1299
:10039000342A831603178C170C14000000008312F4
:1003A0000C087F390319192A0313AC0003170D0831
:1003B0000313AD0003170F080313AE00A7018B1B37
:1003C000A7178B132C08C8009120A71B8B172D088B
:1003D00003178D0003132E0803178F0083168C1745
:1003E0000C140000000083120C0D0E0D7F39031950
:1003F000192A0313AC0003170D080313AD000317EC
:100400000F080313AE00A7018B1BA7178B132C0833
:10041000C8009120A71B8B172D0803178D0003130D
:100420002E0803178F008D0A03198F0A0313C92999
:10043000031703138A110A123B2A840183131F3006
:100440008305A901A80183161F149F141F159F116E
:100450008312AA01FF30AB00003083168600FF3004
:1004600087008312AB005B29553003178D000130E4
:100470008F000313C929A7018B1BA7178B13CD016D
:10048000C030CE003920A71B8B1710308400A70185
:100490008B1BA7178B132908C0002808BF00D82082
:1004A000A71B8B17B5309000C0308B0483160C143B
:0A04B00083128F018E015B2A6300A6
:02400E00723FFF
:00000001FF
;PIC16F876
;CRC=C4A9  CREATED="13-jun-14 09:33"
