:1000000002308A00A82A00000A108A100A1182070A
:1000100028340C34013406348A22EE316F326539CB
:100020003D102518332664000C296F3A6139791088
:100030004537E337E4327200403084008313000810
:10004000031930280130F800F701F70B2528F80BC9
:1000500024284A30F700F70B2B282E28800B222863
:100060000800471835280812362808168316081283
:100070008312C7183D2888123E28881683168812D6
:1000800083124719452808134628081783160813B2
:100090008312C7194D2888134E2888178316881392
:1000A00000000810831208145528831608108312C4
:1000B00008100800C80183160810831208140000F5
:1000C0008316081683124810081A481483168816D7
:1000D0008312C810881AC81483160817831248118F
:1000E000081B4815831688178312C811881BC8156A
:1000F00083160810831208104808F80008008316B9
:1001000088108312881083160811831208150000C6
:100110005A207808C7005A207808C600470EF70012
:10012000F030F70577084604F8007808C600C61BCB
:100130008328C4080319A128831688108312881401
:10014000A5288316881083128810000083160811D2
:100150008312081100008316081083120810450E40
:10016000C6000F30C6054608C700312045080F39C4
:10017000C600C7003120080083168810831288103B
:1001800083160811831208118316081083120810B1
:100190000F30C0001C20B6013608023C031CD828D2
:1001A0000330C70031200530C0001C20B60ACC281F
:1001B0000230C7003120B6013608033C031CE92891
:1001C00036080420B700C4013708C5007F20B60AEE
:1001D000DC288A110A12CD2A3F080C3A0319F728A5
:1001E000063A0319FF28023A031915291A29C401EE
:1001F0000130C5007F200230C0001C201F290130C3
:10020000C0000230C100410B062909294030C2005C
:100210000A29C20101304002C20742088038C300E7
:10022000C4014308C5007F201F29C4011030C50048
:100230007F201F290130C4003F08C5007F2008002F
:100240000B08B6008B13831603178C170C140000D1
:10025000000083120313B61B8B1703170C087F399A
:10026000031974290313B60003170D080313B7000D
:1002700003170F080313B8003608BF00EC20370837
:1002800003178D000313380803178F0003130B089F
:10029000B9008B13831603178C170C140000000091
:1002A00083120313B91B8B1703170C0D0E0D7F3927
:1002B000031974290313B60003170D080313B700BD
:1002C00003170F080313B8003608BF00EC203708E7
:1002D00003178D000313380803178F008D0A0319C5
:1002E0008F0A03132029031703138A110A12DB2A2A
:1002F000B00DB10DB00DB10DFC30B005FF3083165F
:100300008600831206080339B00430080F39B6009E
:10031000B70120303607840083133718831700088D
:10032000FA01F700F71BFA03B2077A0803187A0FED
:10033000B30734083202031DA1293508330203191B
:10034000A52AB31BAA29B308031DAC293208003C17
:10035000031CAC29B301B201B31BBD293308003C17
:100360000318BD29FF3A031DB92932088F3C031831
:10037000BD290130B3009030B2000C3003178D005E
:1003800000308F0003100A300313B6000B08B700CB
:100390008B13831603178C170C14000000008312B4
:1003A0000313B71B8B170318FD2903170C087F399C
:1003B0000313B70003170D080313B80003170F0842
:1003C0000313B9003708BF00EC20380803178D006D
:1003D0000313390803178F0003130B08BA008B139C
:1003E000831603178C170C140000000083120313EC
:1003F000BA1B8B17B60BFD291C2A03170C0D0E0D0B
:100400007F390313B70003170D080313B800031750
:100410000F080313B9003708BF00EC203808031792
:100420008D000313390803178F008D0A03198F0AF3
:1004300003100313B60BC6290B3084003308B70032
:100440003208B600BE010408BD003E10831B3E14F6
:10045000B71F322ABD173D1EBD0AB609B709B60A35
:100460000319B70A370EF038B900B907E23EBA00EF
:10047000323EBC0037080F39BA07BA07BC07E93E5D
:10048000BB00BB07BB07360E0F39BB07BC07BB0D54
:10049000BC0DBC09BC0D36080F39BC07B90D0730BF
:1004A000B8000A30BC07BB03031C522ABB07BA03BF
:1004B000031C562ABA07B903031C5A2AB907B80302
:1004C000031C5E2A38308400831307303D053D133A
:1004D00084033D05031D732A3D1A840A3D1A732ABD
:1004E0002030F700902A84073C30040203193D179E
:1004F0000008F700031D842A3D1B842A3D1A9E2A0A
:10050000BD19842A20308F2ABD1F8C2A2D30F70078
:1005100084033D13BD13902ABD153D123030F707FB
:10052000B7010408B6003710831B37147708BF00E3
:10053000EC2036088400831337188317840A3D1F84
:10054000742A3308B5003208B4008A110A12DC2A72
:1005500003081F398300B101B001B301B201B50135
:10056000B40183161F149F141F159F1107309C00A0
:1005700083138312A001FF30A1000130A200A30168
:10058000A401A501A601A701A801A901AA01AB0127
:10059000AC01AD01AE01AF01BC28831681131F145D
:1005A0009F141F159F111430831203178D00003004
:0C05B0008F00031320297829DB2A630048
:02400E00723FFF
:00000001FF
;PIC16F877A
;CRC=12FC  CREATED="05-mar-15 07:54"
