:1000000000308A00E92800002630840083130008AD
:10001000031918280130F800F701F70B0D28F80B29
:100020000C284A30F700F70B13281628800B0A28F3
:1000300008002A0EF039F7000F3008057704880011
:10004000000008142328081008000808F700080E0C
:100050000F39F80008008316081088100811831261
:1000600088100F3083160805F038880083120815B1
:1000700000000814000025207808AA0008100000DD
:100080000814000025207808A90008100F308316F6
:100090000805880083122A0EF700F030F70577086C
:1000A0002904F8007808A900A91B3128271C88100A
:1000B000271888140000081100000810280EA90055
:1000C0000F30A9052908AA00192028080F39A9000E
:1000D000AA00192008002830A2000C30A30001302B
:1000E000A4000630A5000810881008110F308316F0
:1000F000080588000810881008110F308312A60028
:1001000004200130A1002108033C031C8F28033088
:10011000AA0019200530A6000420A10A8328023075
:10012000AA0019200530A6000420A1012108033CE3
:10013000031CA62822302107840083130008A60090
:10014000A7012608A8002B20A10A96288A110A12C6
:10015000F428230BAC28AF284030A400B028A40119
:1001600001302202A40724088038A500A701250831
:10017000A8002B2008002108073A0319C9280B3AC8
:100180000319CE28063A0319D628023A0319DC28A7
:10019000E1280130A200A300A920E628A701013030
:1001A000A8002B200230A6000420E6280130A2007F
:1001B0000230A300A920E628A7011030A8002B20B8
:1001C000E6280130A7002108A8002B208A110A1276
:1001D000212903081F39830083161F149F141F153C
:1001E0009F11831383126B28A7014030A8002B2096
:1001F0000130A7001F30A8002B200130A7001130CC
:10020000A8002B200130A7001130A8002B200130BE
:10021000A7001130A8002B200130A7001130A80042
:100220002B200130A7001130A8002B200130A7009F
:100230001130A8002B20A7018030A8002B20A1019D
:06024000BB282129630028
:02400E00713F00
:00000001FF
;PIC16F877
;CRC=9F19  CREATED="18-mar-15 14:53"
