:1000000002308A001A2A0000FF00030E8301A100BB
:100010000A08A0008A010408A2007708A300780853
:10002000A4007908A5007A08A600831383128B1E0A
:100030001B280B192C28220884002308F700240809
:10004000F8002508F9002608FA0020088A00210E89
:100050008300FF0E7F0E09008A110A1239290A1047
:100060008A100A11820728340C34013406348610B1
:100070000F3083160605F03886008312061500003F
:10008000061400000608F700060E0F39F80078087D
:10009000D00006100000061400000608F700060E47
:1000A0000F39F8007808CF0006100F3083160605C8
:1000B00086008312500EF700F030F70577084F04E2
:1000C000F8007808CF00CF1B38284D1C86104D183B
:1000D000861400000611000006104E0ECF000F30EF
:1000E000CF054F08D000500EF039F7000F3006054D
:1000F00077048600000006147D2806104E080F398C
:10010000CF004F08D000500EF039F7000F30060531
:1001100077048600000006148D28061008004808A1
:100120000C3A03199A28063A0319B428023A03191B
:10013000CA28CF28CD010130CE0037200230C900B7
:1001400049308400831300080319B3280130F800F4
:10015000F701F70BA928F80BA8285B30F700F70B7D
:10016000AF28800BA628D5280130C9000230CA006C
:100170004A0BBB28BE284030CB00BF28CB01013042
:100180004902CB074B088038CC00CD014C08CE008B
:100190003720D528CD011030CE003720D5280130AA
:1001A000CD004808CE003720D5280800C701040834
:1001B000C6004710831B4714400EF038C200C20728
:1001C000E23EC300323EC50040080F39C307C307F3
:1001D000C507E93EC400C407C4073F0E0F39C40772
:1001E000C507C40DC50DC509C50D3F080F39C507A5
:1001F000C20D0730C1000A30C507C403031CFC2828
:10020000C407C303031C0029C307C203031C04293A
:10021000C207C103031C082941308400831307303F
:1002200046054613840745300402031946170008A3
:10023000F700031D2329461B2329461A3529C61911
:10024000232920302629C61546123030F707C00171
:100250000408BF004010831B40147708C8008F209B
:100260003F088400831340188317840A461F13290C
:100270000800AA0A2A08103C031D4E29AA01A80A50
:100280000319A90ACD01C030CE00372010308400F8
:100290002908C0002808BF00D62081010B118A114F
:1002A0000A121B288C216F37F430E7326D1D0000D5
:1002B0000F3083160605860006108610061183127D
:1002C0008610061106100F30C900493084008313D0
:1002D0000008031978290130F800F701F70B6E299F
:1002E000F80B6D295B30F700F70B7429800B6B2935
:1002F0000130AC002C08033C031CA2290330D000C1
:10030000500EF039F7000F30060577048600000024
:1003100006148A2906100530C90049308400831369
:1003200000080319A0290130F800F701F70B9629FE
:10033000F80B95295B30F700F70B9C29800B93296C
:10034000AC0A7A290230D000500EF039F7000F3095
:1003500006057704860000000614AE290610AC01DD
:100360002C08033C031CC3292C082F20AD00A70137
:100370008B1BA7178B13CD012D08CE003720A71B91
:100380008B17AC0AB0298A110A12312A8316031777
:100390008C170C140000000083120C087F3903191D
:1003A000162A0313AC0003170D080313AD0003173F
:1003B0000F080313AE00A7018B1BA7178B132C0884
:1003C000C8008F20A71B8B172D0803178D00031360
:1003D0002E0803178F0083168C170C1400000000E2
:1003E00083120C0D0E0D7F390319162A0313AC006E
:1003F00003170D080313AD0003170F080313AE0016
:10040000A7018B1BA7178B132C08C8008F20A71BD5
:100410008B172D0803178D0003132E0803178F0069
:100420008D0A03198F0A0313C629031703138A11B0
:100430000A12382A840183131F308305A901A801F9
:1004400083161F149F141F159F118312AA01FF30DA
:10045000AB00003083168600FF3087008312AB00AC
:100460005829523003178D0001308F000313C6291D
:10047000A7018B1BA7178B13CD01C030CE003720EF
:10048000A71B8B1710308400A7018B1BA7178B139A
:100490002908C0002808BF00D620A71B8B17831689
:1004A0000108C03907388100C03083128B048B16D5
:0604B0008101592A6300DE
:02400E00723FFF
:00000001FF
;PIC16F876
;CRC=8A4A  CREATED="13-jun-14 10:37"
