:1000000001308A00202900000A108A100A11820794
:1000100028340C3401340634223084008313000861
:1000200003191F280130F800F701F70B1528F80B0A
:1000300014285B30F700F70B1B28800B12280800F0
:10004000290EF039F7000F3006057704860000000E
:1000500006142A28061008000608F700060E0F39B5
:10006000F800080086100F3083160605F038860069
:10007000831206150000061400002C207808A90041
:1000800006100000061400002C207808A8000610B6
:100090000F308316060586008312290EF700F03014
:1000A000F70577082804F8007808A800A81B33286B
:1000B000261C861026188614000006110000061063
:1000C000270EA8000F30A8052808A900202027081F
:1000D0000F39A800A900202008000F30831606055C
:1000E000860006108610061183128610061106106F
:1000F0000F30A2000C200130A1002108033C031C9A
:1001000089280330A90020200530A2000C20A10A74
:100110007D280230A9002020A1012108033C031CF6
:100120009A2821080420A200A6012208A700322054
:10013000A10A8D288A110A122D29A6014030A70094
:1001400032200130A600A70132200130A6000A307B
:10015000A70032200130A6000A30A700322001306B
:10016000A600A70132200130A6001130A7003220DE
:100170000130A6000E30A70032200130A600A701F2
:1001800032208A110A122E290130A6004030A70021
:1001900032200130A600A70132200130A6000A302B
:1001A000A70032200130A6000A30A700322001301B
:1001B000A600A70132200130A6000E30A700322091
:1001C0000130A6001130A70032200130A600A7019F
:1001D00032208A110A122F2921080C3A0319F72814
:1001E000063A0319FF28023A031915291A29A6010C
:1001F0000130A70032200230A2000C201F2901305C
:10020000A2000230A300230B062909294030A400D4
:100210000A29A40101302202A40724088038A5007D
:10022000A6012508A70032201F29A6011030A7002B
:1002300032201F290130A6002108A7003220080023
:1002400003081F39830083161F149F141F159F1165
:1002500083130030860083126D289D28C428A601D0
:100260008030A7003220A101EC200430A100FA3038
:10027000A2000C20A10B3729A6018030A700322054
:100280000130A100EC200430A100FA30A2000C20C3
:08029000A10B45292F29630091
:02400E00723FFF
:00000001FF
;PIC16F876
;CRC=98C8  CREATED="22-mar-17 09:38"
