:1000000005308A002A2D00000C056937E931E937EF
:1000100000000D05A0183A10253664000D052019C2
:100020003A10253664000D05A0193A1025366400F3
:100030000D05201A3A10253664000D05A02A311D41
:10004000A0123117333300390D05A02A321DA0123A
:100050003117333300010D05A02A331DA0123117CB
:10006000333300010D05A02A341DA012311733339C
:1000700000000830F80000008711A2112208831642
:10008000870000008312B70D0712031C4D282216AB
:100090002208831687005128831222122208831611
:1000A000870000008312A21522088316870083129E
:1000B000871D5828F80B3B2800008711A211220841
:1000C00083168700000083122216220883168700F9
:1000D000000000008312A2152208831687008312F5
:1000E000871D7028F8010000071A78148711A211E3
:1000F0002208831687008312071222122208831611
:100100008700831208002216220883168700000049
:100110008312A2152208831687000000831207129B
:100120002212220883168700000083128711A21171
:10013000220883168700031083122B0DD038AC00E1
:10014000B70039201830B700392022122208831650
:10015000870000008312A2152208831687008312ED
:10016000871DB0280000B42800002216220883163C
:100170008700000083128A110A12482D0B08AB0079
:100180008B13831603178C170C14000000008312C6
:100190000313AB1B8B1703170C087F3903191429A2
:1001A0000313AB0003170D080313AC0003170F086C
:1001B0000313AD002B080C1EDB2899002C08031735
:1001C0008D0003132D0803178F0003130B08AE00D7
:1001D0008B13831603178C170C1400000000831276
:1001E0000313AE1B8B1703170C0D0E0D7F3903196C
:1001F00014290313AB0003170D080313AC000317F6
:100200000F080313AD002B080C1E042999002C08BD
:1002100003178D0003132D0803178F008D0A031990
:100220008F0A0313BE28031703138A110A124F2DD6
:10023000221622088316870000008312A2152208C6
:1002400083168700000083120712221222088316E9
:100250008700000083128711A211220883168700ED
:10026000031083122C0DD038AD00B70039202B0EAF
:10027000F700F70DE030F70577081838AD00B70044
:100280003920221222088316870000008312A2154B
:100290002208831687008312871D4C2900005029ED
:1002A000000022162208831687000000831208002F
:1002B0000830B7007708B800221622088316870096
:1002C00000008312A2152208831687008312871D5F
:1002D0006729071A0314071E0310F80D0000A21166
:1002E00022088316870083128711B70B5C29221618
:1002F00022088316870000008312071238080319AA
:100300008629221222088316870083120000A21574
:100310002208831687008312871D8C29000087110D
:10032000A2112208831687000000831207122212EE
:10033000220883168700831208008030B500221639
:1003400022088316870000008312A2152208831654
:1003500087000000831207122212220883168700EA
:10036000000083128711A211220883168700031050
:100370008312320DD0380138B600B7003920013071
:10038000F70058217808B4000130F70058217808A8
:10039000B3000130F70058217808B500B51F1B2ABB
:1003A0000130F70058217808B500B51BD029F701B6
:1003B00058217808B5002212220883168700000011
:1003C0008312A2152208831687008312871DE6294F
:1003D0000000EA2900002216220883168700000088
:1003E0008312221622088316870000008312A215AA
:1003F00022088316870000008312071222122208A7
:1004000083168700000083128711A2112208831629
:10041000870003108312320DD0380138B600B700C0
:1004200039200130F70058217808B4000130F70076
:1004300058217808B300F70158217808B500221236
:1004400022088316870000008312A2152208831653
:1004500087008312871D2A2A00002E2A00002216F8
:10046000220883168700000083123308F80034083E
:10047000F90008000B08AC008B13831603178C17C8
:100480000C140000000083120313AC1B8B1703181D
:10049000722A03170C087F390313AC0003170D08E9
:1004A0000313AD0003170F080313AE002C080C1E36
:1004B000572A99002D0803178D0003132E080317E0
:1004C0008F0003130B08AF008B13831603178C17D1
:1004D0000C140000000083120313AF1B8B17AB0B2F
:1004E000722A922A03170C0D0E0D7F390313AC00EC
:1004F00003170D080313AD0003170F080313AE0015
:100500002C080C1E812A99002D0803178D00031357
:100510002E0803178F008D0A03198F0A0310031387
:10052000AB0B3A2A08008318982A403084008313C2
:10053000F701F801F901FA01C001C101C201C301CB
:100540003F083E043D043C040319D62A2030C40071
:100550000310B80DB90DBA0DBB0DC00DC10DC20D04
:10056000C30D3F084302031DBF2A3E084202031D7C
:10057000BF2A3D084102031DBF2A3C084002031C5C
:10058000D02A3C08C0023D08031C3D0FC1023E08B2
:10059000031C3E0FC2023F08031C3F0FC30203149B
:1005A000F70DF80DF90DFA0DC40BA82A40088000CC
:1005B000840A41088000840A42088000840A4308B3
:1005C000800008000408AF00AE1FF32AAF03AF1687
:1005D000AB09AC09AD09AE09AB0A0319AC0A0319A2
:1005E000AD0A0319AE0A3B30B6009A30B500CA30E6
:1005F000B400B3010A30B10083142B30840083139C
:100600002E08BB002D08BA002C08B9002B08B80032
:100610003608BF003508BE003408BD003308BC00F2
:1006200093227808F708031D282B3108013A031993
:10063000282B2F0803192A2B0F3931020319222BDB
:100640000318492BAF1B492B2F1B2A2B2030442B7F
:100650002030AF05AF1E362BAF127708AF002D301C
:100660000C1E302B99002F08F700AF013030AF1E61
:10067000442BAF127708AF002D300C1E3D2B990094
:100680002F08F700AF013030F70777080C1E462B14
:10069000990083103608BB003508BA003408B90049
:1006A0003308B800BF01BE01BD010A30BC0093226F
:1006B0007A08B6007908B5007808B4007708B30066
:1006C000B10BFC2A08002C308400831300080319A6
:1006D000772B0130F800F701F70B6C2BF80B6B2B25
:1006E0004A30F700F70B722B752B800B692B080033
:1006F00038080319E82BC0003C080319E82BC00791
:100700000318892B7F30C002031CE82B0319E82B48
:100710008D2B8130C0070318E82B4008F700F80143
:10072000F901FA013908C400C4173A08C3003B08AC
:10073000C2001830C000C101421CB62B3F08FA07A6
:10074000031CA82BF90A031DA82BF80A0319C117CB
:100750003E08F907031CAF2BF80A0319C1173D081F
:10076000BA00BA173A08F8070318C117C10DF80CF8
:10077000F90CFA0CC40CC30CC20C0310C00B9B2B5D
:100780000130F7070318E82BF81BCD2BC40DFA0D29
:10079000F90DF80DF7030319E82BC41FDE2BFA0A35
:1007A000031DDE2BF90A031DDE2BF80A031DDE2BC9
:1007B000F80CF90CFA0CF70A0319E82B3908C100F8
:1007C0003D08C106C11FE62BF817EC2BF813EC2BE4
:1007D000F701F801F901FA0108002B08B2009D2188
:1007E0007908AD007808AC002D08B3002C08B200E1
:1007F0008E30F7003308F8003208F900FA01B31F11
:10080000062CF809F909F90A0319F80AF808031D72
:10081000132C7908F800F9010830F702F808031DD5
:10082000132CF7011C2C0310F81B1A2CF90DF80DD2
:10083000F703132CB31FF8137A08B5007908B40036
:100840007808B3007708B2007A08BB007908BA00CC
:100850007808B9007708B8006F30BF001230BE00CA
:100860000330BD007130BC0078237A08B1007908EC
:10087000B0007808AF007708AE002E08F7002F0808
:10088000F8003008F9003108FA0008000408B00048
:100890002F08B2000319652C2E08BB002D08BA00E2
:1008A0002C08B9002B08B800BF01BE012030BD00E4
:1008B0008230BC0078237A08AE007908AD00780851
:1008C000AC007708AB00B20B4C2C2E08BB002D08F7
:1008D000BA002C08B9002B08B8003808B63CB8009C
:1008E000FA013908BC00B9170310B90CBA0CBB0CDB
:1008F000FA0CF90CF80CF70CB80B742CBC1F8B2CF1
:10090000F709F809F909FA09F70A0319F80A0319A6
:10091000F90A0319FA0A7A08AE007908AD007808D6
:10092000AC007708AB00AE1FA22CB003B016AB0929
:10093000AC09AD09AE09AB0A0319AC0A0319AD0A3B
:100940000319AE0A3B30B7009A30B600CA30B50082
:10095000B4010A30B2002F080319B00A83142B30F7
:10096000840083132E08BB002D08BA002C08B900A0
:100970002B08B8003708BF003608BE003508BD0098
:100980003408BC0093227808F708031DDA2C2F0ADC
:1009900032020319DA2C30080319DC2C0F39320229
:1009A0000319D42C0318102DB01B102D301BDC2C78
:1009B00020300B2D2030B005B01EEB2CB0122F08CC
:1009C000031DB0037708B0002D300C1EE52C9900F4
:1009D0003008F700B0012F083202031DFA2C770807
:1009E000B0002E300C1EF22C99003008F700203099
:1009F000B00500303030B01E0B2DB0122F08031D93
:100A0000B0037708B0002D300C1E042D990030087B
:100A1000F700B0013030F70777080C1E0D2D990054
:100A200083103708BB003608BA003508B90034080F
:100A3000B800BF01BE01BD010A30BC0093227A0894
:100A4000B7007908B6007808B5007708B400B20B93
:100A5000AE2C080003081F39830019308316990053
:100A6000A6309800903083129800FF30A200A601B3
:100A7000A501A401A30183161F149F141F159F1124
:100A800007309C0083138312A001A101AB018328CE
:100A9000043003178D0000308F000313BE28AB0114
:100AA000AC011821B2019D217808F7007908F800FF
:100AB000F901FA017A08A6007908A5007808A400CF
:100AC0007708A300093003178D0000308F00031052
:100AD00006300313AB003A22413084002608AE00F2
:100AE0002508AD002408AC002308AB00E222043046
:100AF000AB00FA30AC006323AB0B792D0130AB00B7
:100B0000AC011821B2019D217808F7007908F8009E
:100B1000F901FA017A08A6007908A5007808A4006E
:100B20007708A3000E3003178D0000308F000310EC
:100B300006300313AB003A22413084002608AE0091
:100B40002508AD002408AC002308AB00E2220430E5
:100B5000AB00FA30AC006323AB0BA92D0230AB0025
:100B6000AC011821B2019D217808F7007908F8003E
:100B7000F901FA017A08A6007908A5007808A4000E
:100B80007708A300133003178D0000308F00031087
:100B900006300313AB003A22413084002608AE0031
:100BA0002508AD002408AC002308AB00E222043085
:100BB000AB00FA30AC006323AB0BD92D0330AB0094
:100BC000AC011821B2019D217808F7007908F800DE
:100BD000F901FA017A08A6007908A5007808A400AE
:100BE0007708A300183003178D0000308F00031022
:100BF00006300313AB003A22413084002608AE00D1
:100C00002508AD002408AC002308AB00E222043024
:100C1000AB00FA30AC006323AB0B092EAB01AC0187
:100C20001821AB01ED237A08AA007908A9007808F9
:100C3000A8007708A7001D3003178D0000308F0033
:100C4000031007300313AB003A22893084002A08CE
:100C5000AE002908AD002808AC002708AB0003301F
:100C6000AF0046240430AB00FA30AC006323AB0B7A
:100C7000342E0130AB00AC011821AB01ED237A0812
:100C8000AA007908A9007808A8007708A7002430EE
:100C900003178D0000308F00031007300313AB00E3
:100CA0003A22893084002A08AE002908AD002808BD
:100CB000AC002708AB000330AF0046240430AB0083
:100CC000FA30AC006323AB0B602E0230AB00AC01FA
:100CD0001821AB01ED237A08AA007908A900780849
:100CE000A8007708A7002B3003178D0000308F0075
:100CF000031007300313AB003A22893084002A081E
:100D0000AE002908AD002808AC002708AB0003306E
:100D1000AF0046240430AB00FA30AC006323AB0BC9
:100D20008C2E0330AB00AC011821AB01ED237A0807
:100D3000AA007908A9007808A8007708A70032302F
:100D400003178D0000308F00031007300313AB0032
:100D50003A22893084002A08AE002908AD0028080C
:100D6000AC002708AB000330AF0046240430AB00D2
:0E0D7000FA30AC006323AB0BB82E4F2D63009E
:02400E00721F1F
:00000001FF
;PIC16F876A
;CRC=EA6E  CREATED="19-abr-16 13:50"
